:1000000030050020852A0000F12A0000F92A0000AE
:10001000012B0000012B0000012B0000000000005C
:10002000000000000000000000000000012B0000A4
:10003000012B000000000000012B0000012B00003C
:10004000012B0000012B0000012B0000012B000000
:10005000012B0000012B0000012B0000012B0000F0
:10006000012B0000012B0000012B0000012B0000E0
:10007000012B0000012B0000012B0000012B0000D0
:10008000012B0000012B0000012B0000012B0000C0
:10009000012B0000012B0000012B0000012B0000B0
:1000A000012B0000012B0000012B0000012B0000A0
:1000B000012B0000012B0000012B0000012B000090
:1000C000012B0000012B0000012B0000012B000080
:1000D000012B0000012B0000012B0000012B000070
:1000E000012B00000000000000000000012B0000B8
:1000F000012B0000012B0000012B0000012B000050
:10010000012B0000012B0000012B0000012B00003F
:100110000000000000000000012B0000012B000087
:10012000012B0000012B0000012B0000012B00001F
:10013000012B0000012B0000012B0000012B00000F
:1001400000000000000000000000000000000000AF
:10015000012B0000012B0000012B0000012B0000EF
:10016000000000000000000000000000000000008F
:10017000000000000000000000000000000000007F
:10018000000000000000000000000000000000006F
:10019000000000000000000000000000000000005F
:1001A000000000000000000000000000000000004F
:1001B000012B0000012B0000012B0000012B00008F
:1001C000012B0000012B0000012B0000012B00007F
:1001D000012B0000012B0000012B0000012B00006F
:1001E000012B0000012B0000012B0000000000008B
:1001F00000000000012B0000012B0000012B00007B
:10020000012B0000012B0000000000000000000096
:10021000012B0000012B0000012B0000012B00002E
:10022000012B0000012B0000012B0000012B00001E
:10023000012B0000012B0000012B0000012B00000E
:10024000012B0000012B0000012B0000012B0000FE
:10025000012B0000012B0000012B0000012B0000EE
:10026000012B0000012B0000012B000080B5CEB057
:1002700000AF0023C7F83431D74A07F164031146B1
:100280006922184603F098F80023C7F8303100239C
:10029000C7F82C310023C7F828310023C7F82031D4
:1002A00001F0C5B9D7F82831022B2CDC07F1640224
:1002B000D7F82031134493F900302C2B23D1D7F8F1
:1002C0002031023B07F59C72134413F9D43CA3F18F
:1002D000300213469B0013445B001A46D7F82031C6
:1002E000013B07F59C710B4413F9D43C303BD1180A
:1002F00007F12803D7F8282143F82210D7F828312E
:100300000133C7F8283107F16402D7F820311344CC
:1003100093F90030732B40F0DB81D7F820310133A3
:1003200007F59C72134413F9D43C752B40F0D0812F
:10033000D7F820310233C7F8243109E0D7F8343137
:100340000133C7F83431D7F824310133C7F82431E9
:10035000D7F82431013307F59C72134413F9D43CC8
:100360002C2BEBD1D7F83431012B17D1D7F8203112
:10037000033307F59C72134413F9D43CA3F1300204
:10038000D7F830319B0007F59C710B4443F8E82CFB
:10039000D7F830310133C7F8303160E0D7F8343165
:1003A000022B26D1D7F82031033307F59C72134472
:1003B00013F9D43CA3F1300213469B0013445B00B5
:1003C0001A46D7F82031043307F59C710B4413F912
:1003D000D43C303B1A44D7F830319B0007F59C7170
:1003E0000B4443F8E82CD7F830310133C7F83031EB
:1003F00035E0D7F83431032B31D1D7F8203103332E
:1004000007F59C72134413F9D43C303B642202FB81
:1004100003F1D7F82031043307F59C72134413F924
:10042000D43CA3F1300213469B0013445B00CA186E
:10043000D7F82031053307F59C710B4413F9D43CF0
:10044000303B1A44D7F830319B0007F59C710B44C0
:1004500043F8E82CD7F830310133C7F830310023A6
:10046000C7F83431D7F820310533C7F8243109E013
:10047000D7F834310133C7F83431D7F82431013398
:10048000C7F82431D7F82431013307F59C7213449F
:1004900013F9D43C202BEBD1D7F83431012B3BD1CD
:1004A000D7F82431013307F59C72134413F9D43C77
:1004B000542B19D1D7F82031063307F59C72134419
:1004C00013F9D43C303B642202FB03F2D7F82C3101
:1004D0009B0007F59C710B4443F8FC2CD7F82C319A
:1004E0000133C7F82C31F0E0D7F82031063307F597
:1004F0009C72134413F9D43CA3F13002D7F82C3189
:100500009B0007F59C710B4443F8FC2CD7F82C3169
:100510000133C7F82C31D8E0D7F83431022B5DD144
:10052000D7F82431013307F59C72134413F9D43CF6
:10053000542B29D1D7F82031063307F59C72134488
:1005400013F9D43CA3F1300213469B0013445B0023
:100550001A46D7F82031073307F59C710B4413F97D
:10056000D43C303B1344642202FB03F2D7F82C3115
:100570009B0007F59C710B4443F8FC2CD7F82C31F9
:100580000133C7F82C31A0E0D7F82031063307F546
:100590009C72134413F9D43CA3F1300213469B0020
:1005A00013445B001A46D7F82031073307F59C71D6
:1005B0000B4413F9D43C303B1A44D7F82C319B0040
:1005C00007F59C710B4443F8FC2CD7F82C31013310
:1005D000C7F82C3179E000BF68370000D7F8343114
:1005E000032B32D1D7F82431013307F59C72134421
:1005F00013F9D43C542B68D1D7F82031063307F5D2
:100600009C72134413F9D43C303B642202FB03F187
:10061000D7F82031083307F59C72134413F9D43C02
:10062000A3F1300213469B0013445B00CA18D7F8AD
:100630002C319B0007F59C710B4443F8FC2CD7F838
:100640002C310133C7F82C313FE0D7F83431042B7B
:100650003BD1D7F82431013307F59C72134413F9C9
:10066000D43C542B31D1D7F82031063307F59C7296
:10067000134413F9D43C303B642202FB03F1D7F856
:100680002031083307F59C72134413F9D43CA3F1CD
:10069000300213469B0013445B00CA18D7F8203180
:1006A000093307F59C710B4413F9D43C303B1A44D1
:1006B000D7F82C319B0007F59C710B4443F8FC2CB8
:1006C000D7F82C310133C7F82C310023C7F8343167
:1006D00007F16402D7F82031134493F90030632BFB
:1006E00040F0DD81D7F82031013307F59C721344C7
:1006F00013F9D43C612B40F0D281D7F82031033379
:10070000C7F8243109E0D7F834310133C7F8343160
:10071000D7F824310133C7F82431D7F82431013315
:1007200007F59C72134413F9D43C2C2BEBD1D7F86A
:100730003431012B17D1D7F82031043307F59C72DF
:10074000134413F9D43CA3F13002D7F830319B00A5
:1007500007F59C710B4443F8E82CD7F8303101338E
:10076000C7F8303160E0D7F83431022B26D1D7F802
:100770002031043307F59C72134413F9D43CA3F1E0
:10078000300213469B0013445B001A46D7F8203111
:10079000053307F59C710B4413F9D43C303B1A44E4
:1007A000D7F830319B0007F59C710B4443F8E82CD7
:1007B000D7F830310133C7F8303135E0D7F834316C
:1007C000032B31D1D7F82031043307F59C72134441
:1007D00013F9D43C303B642202FB03F1D7F82031FB
:1007E000053307F59C72134413F9D43CA3F130028E
:1007F00013469B0013445B00CA18D7F82031063318
:1008000007F59C710B4413F9D43C303B1A44D7F8DC
:1008100030319B0007F59C710B4443F8E82CD7F866
:1008200030310133C7F830310023C7F83431D7F8FD
:1008300020310633C7F8243109E0D7F834310133C9
:10084000C7F83431D7F824310133C7F82431D7F849
:100850002431013307F59C72134413F9D43C202B47
:10086000EBD1D7F824310133C7F82431D7F834312C
:10087000012B3BD1D7F82431013307F59C72134487
:1008800013F9D43C542B19D1D7F82031073307F58D
:100890009C72134413F9D43C303B642202FB03F2F4
:1008A000D7F82C319B0007F59C710B4443F8FC2CC6
:1008B000D7F82C310133C7F82C31EDE0D7F82031CF
:1008C000073307F59C72134413F9D43CA3F13002AB
:1008D000D7F82C319B0007F59C710B4443F8FC2C96
:1008E000D7F82C310133C7F82C31D5E0D7F83431A3
:1008F000022B5AD1D7F82431013307F59C721344E7
:1009000013F9D43C542B29D1D7F82031073307F5FC
:100910009C72134413F9D43CA3F1300213469B009C
:1009200013445B001A46D7F82031083307F59C7151
:100930000B4413F9D43C303B1344642202FB03F212
:10094000D7F82C319B0007F59C710B4443F8FC2C25
:10095000D7F82C310133C7F82C319DE0D7F820317E
:10096000073307F59C72134413F9D43CA3F130020A
:1009700013469B0013445B001A46D7F82031083316
:1009800007F59C710B4413F9D43C303B1A44D7F85B
:100990002C319B0007F59C710B4443F8FC2CD7F8D5
:1009A0002C310133C7F82C3176E0D7F83431032BE2
:1009B00032D1D7F82431013307F59C72134413F96F
:1009C000D43C542B68D1D7F82031073307F59C72FB
:1009D000134413F9D43C303B642202FB03F1D7F8F3
:1009E0002031093307F59C72134413F9D43CA3F169
:1009F000300213469B0013445B00CA18D7F82C3111
:100A00009B0007F59C710B4443F8FC2CD7F82C3164
:100A10000133C7F82C313FE0D7F83431042B3BD1F8
:100A2000D7F82431013307F59C72134413F9D43CF1
:100A3000542B31D1D7F82031073307F59C7213447A
:100A400013F9D43C303B642202FB03F1D7F8203188
:100A5000093307F59C72134413F9D43CA3F1300217
:100A600013469B0013445B00CA18D7F820310A33A1
:100A700007F59C710B4413F9D43C303B1A44D7F86A
:100A80002C319B0007F59C710B4443F8FC2CD7F8E4
:100A90002C310133C7F82C310023C7F8343107F16A
:100AA0006402D7F82031134493F900306B2B40F0E7
:100AB000DD81D7F82031013307F59C72134413F917
:100AC000D43C612B40F0D281D7F820310533C7F8F0
:100AD000243109E0D7F834310133C7F83431D7F87D
:100AE00024310133C7F82431D7F82431013307F515
:100AF0009C72134413F9D43C2C2BEBD1D7F834312E
:100B0000012B17D1D7F82031063307F59C72134417
:100B100013F9D43CA3F13002D7F830319B0007F52C
:100B20009C710B4443F8E82CD7F830310133C7F8F7
:100B3000303160E0D7F83431022B26D1D7F820319C
:100B4000063307F59C72134413F9D43CA3F1300229
:100B500013469B0013445B001A46D7F82031073335
:100B600007F59C710B4413F9D43C303B1A44D7F879
:100B700030319B0007F59C710B4443F8E82CD7F803
:100B800030310133C7F8303135E0D7F83431032B39
:100B900031D1D7F82031063307F59C72134413F98D
:100BA000D43C303B642202FB03F1D7F820310733F9
:100BB00007F59C72134413F9D43CA3F13002134699
:100BC0009B0013445B00CA18D7F82031083307F59F
:100BD0009C710B4413F9D43C303B1A44D7F83031A4
:100BE0009B0007F59C710B4443F8E82CD7F8303193
:100BF0000133C7F830310023C7F83431D7F820313A
:100C00000833C7F8243109E0D7F834310133C7F885
:100C10003431D7F824310133C7F82431D7F82431DF
:100C2000013307F59C72134413F9D43C202BEBD10C
:100C3000D7F824310133C7F82431D7F83431012BE8
:100C40003BD1D7F82431013307F59C72134413F9D3
:100C5000D43C542B19D1D7F82031093307F59C72B5
:100C6000134413F9D43C303B642202FB03F2D7F85F
:100C70002C319B0007F59C710B4443F8FC2CD7F8F2
:100C80002C310133C7F82C31EDE0D7F8203109338E
:100C900007F59C72134413F9D43CA3F13002D7F842
:100CA0002C319B0007F59C710B4443F8FC2CD7F8C2
:100CB0002C310133C7F82C31D5E0D7F83431022B71
:100CC0005AD1D7F82431013307F59C72134413F934
:100CD000D43C542B29D1D7F82031093307F59C7225
:100CE000134413F9D43CA3F1300213469B00134480
:100CF0005B001A46D7F820310A3307F59C710B4484
:100D000013F9D43C303B1344642202FB03F2D7F8BE
:100D10002C319B0007F59C710B4443F8FC2CD7F851
:100D20002C310133C7F82C319DE0D7F8203109333D
:100D300007F59C72134413F9D43CA3F13002134617
:100D40009B0013445B001A46D7F820310A3307F59D
:100D50009C710B4413F9D43C303B1A44D7F82C3126
:100D60009B0007F59C710B4443F8FC2CD7F82C3101
:100D70000133C7F82C3176E0D7F83431032B32D168
:100D8000D7F82431013307F59C72134413F9D43C8E
:100D9000542B68D1D7F82031093307F59C721344DE
:100DA00013F9D43C303B642202FB03F1D7F8203125
:100DB0000B3307F59C72134413F9D43CA3F13002B2
:100DC00013469B0013445B00CA18D7F82C319B00D4
:100DD00007F59C710B4443F8FC2CD7F82C310133F8
:100DE000C7F82C313FE0D7F83431042B3BD1D7F88A
:100DF0002431013307F59C72134413F9D43C542B6E
:100E000031D1D7F82031093307F59C72134413F917
:100E1000D43C303B642202FB03F1D7F820310B3382
:100E200007F59C72134413F9D43CA3F13002134626
:100E30009B0013445B00CA18D7F820310C3307F528
:100E40009C710B4413F9D43C303B1A44D7F82C3135
:100E50009B0007F59C710B4443F8FC2CD7F82C3110
:100E60000133C7F82C310023C7F8343107F164028D
:100E7000D7F82031134493F90030632B40F0DD8123
:100E8000D7F82031013307F59C72134413F9D43C91
:100E9000692B40F0D281D7F820310833C7F82431CC
:100EA00009E0D7F834310133C7F83431D7F82431A9
:100EB0000133C7F82431D7F82431013307F59C7288
:100EC000134413F9D43C2C2BEBD1D7F83431012B3C
:100ED00017D1D7F82031093307F59C72134413F961
:100EE000D43CA3F13002D7F830319B0007F59C7158
:100EF0000B4443F8E82CD7F830310133C7F83031D0
:100F000060E0D7F83431022B26D1D7F820310933ED
:100F100007F59C72134413F9D43CA3F13002134635
:100F20009B0013445B001A46D7F820310A3307F5BB
:100F30009C710B4413F9D43C303B1A44D7F8303140
:100F40009B0007F59C710B4443F8E82CD7F830312F
:100F50000133C7F8303135E0D7F83431032B31D1C4
:100F6000D7F82031093307F59C72134413F9D43CA8
:100F7000303B642202FB03F1D7F820310A3307F536
:100F80009C72134413F9D43CA3F1300213469B0026
:100F900013445B00CA18D7F820310B3307F59C7156
:100FA0000B4413F9D43C303B1A44D7F830319B0042
:100FB00007F59C710B4443F8E82CD7F83031013326
:100FC000C7F830310023C7F83431D7F820310B335C
:100FD000C7F8243109E0D7F834310133C7F8343188
:100FE000D7F824310133C7F82431D7F8243101333D
:100FF00007F59C72134413F9D43C202BEBD1D7F89E
:1010000024310133C7F82431D7F83431012B3BD1D7
:10101000D7F82431013307F59C72134413F9D43CFB
:10102000542B19D1D7F820310C3307F59C72134497
:1010300013F9D43C303B642202FB03F2D7F82C3185
:101040009B0007F59C710B4443F8FC2CD7F82C311E
:101050000133C7F82C31EDE0D7F820310C3307F518
:101060009C72134413F9D43CA3F13002D7F82C310D
:101070009B0007F59C710B4443F8FC2CD7F82C31EE
:101080000133C7F82C31D5E0D7F83431022B5AD1CF
:10109000D7F82431013307F59C72134413F9D43C7B
:1010A000542B29D1D7F820310C3307F59C72134407
:1010B00013F9D43CA3F1300213469B0013445B00A8
:1010C0001A46D7F820310D3307F59C710B4413F9FC
:1010D000D43C303B1344642202FB03F2D7F82C319A
:1010E0009B0007F59C710B4443F8FC2CD7F82C317E
:1010F0000133C7F82C319DE0D7F820310C3307F5C8
:101100009C72134413F9D43CA3F1300213469B00A4
:1011100013445B001A46D7F820310D3307F59C7154
:101120000B4413F9D43C303B1A44D7F82C319B00C4
:1011300007F59C710B4443F8FC2CD7F82C31013394
:10114000C7F82C3176E0D7F83431032B32D1D7F8F9
:101150002431013307F59C72134413F9D43C542B0A
:1011600068D1D7F820310C3307F59C72134413F97A
:10117000D43C303B642202FB03F1D7F820310E331C
:1011800007F59C72134413F9D43CA3F130021346C3
:101190009B0013445B00CA18D7F82C319B0007F55D
:1011A0009C710B4443F8FC2CD7F82C310133C7F861
:1011B0002C313FE0D7F83431042B3BD1D7F8243120
:1011C000013307F59C72134413F9D43C542B31D1ED
:1011D000D7F820310C3307F59C72134413F9D43C33
:1011E000303B642202FB03F1D7F820310E3307F5C0
:1011F0009C72134413F9D43CA3F1300213469B00B4
:1012000013445B00CA18D7F820310F3307F59C71DF
:101210000B4413F9D43C303B1A44D7F82C319B00D3
:1012200007F59C710B4443F8FC2CD7F82C310133A3
:10123000C7F82C310023C7F8343107F16402D7F81E
:101240002031134493F90030622B40F0EB81D7F842
:101250002031013307F59C72134413F9D43C692BF8
:1012600040F0E081D7F820310733C7F8243109E096
:10127000D7F834310133C7F83431D7F8243101338A
:10128000C7F82431D7F82431013307F59C72134491
:1012900013F9D43C2C2BEBD1D7F83431012B17D1D7
:1012A000D7F82031083307F59C72134413F9D43C66
:1012B000A3F13002D7F830319B0007F59C710B4445
:1012C00043F8E82CD7F830310133C7F8303160E00B
:1012D000D7F83431022B26D1D7F82031083307F55F
:1012E0009C72134413F9D43CA3F1300213469B00C3
:1012F00013445B001A46D7F82031093307F59C7177
:101300000B4413F9D43C303B1A44D7F830319B00DE
:1013100007F59C710B4443F8E82CD7F830310133C2
:10132000C7F8303135E0D7F83431032B31D1D7F855
:101330002031083307F59C72134413F9D43C303B39
:10134000642202FB03F1D7F82031093307F59C72C0
:10135000134413F9D43CA3F1300213469B00134409
:101360005B00CA18D7F820310A3307F59C710B448B
:1013700013F9D43C303B1A44D7F830319B0007F5C1
:101380009C710B4443F8E82CD7F830310133C7F88F
:101390003031D7F82031DA1DD7F834311344013316
:1013A000C7F824310023C7F8343109E0D7F83431C5
:1013B0000133C7F83431D7F824310133C7F8243169
:1013C000D7F82431013307F59C72134413F9D43C48
:1013D000202BEBD1D7F82431013307F59C7213444D
:1013E00013F9D43C202BE1D1D7F824310133C7F8CD
:1013F0002431D7F83431012B3BD1D7F824310133D4
:1014000007F59C72134413F9D43C542B19D1D7F827
:1014100020310C3307F59C72134413F9D43C303B54
:10142000642202FB03F2D7F82C319B0007F59C7174
:101430000B4443F8FC2CD7F82C310133C7F82C317E
:10144000EDE0D7F820310C3307F59C72134413F903
:10145000D43CA3F13002D7F82C319B0007F59C71E6
:101460000B4443F8FC2CD7F82C310133C7F82C314E
:10147000D5E0D7F83431022B5AD1D7F824310133D3
:1014800007F59C72134413F9D43C542B29D1D7F897
:1014900020310C3307F59C72134413F9D43CA3F1AB
:1014A000300213469B0013445B001A46D7F82031E4
:1014B0000D3307F59C710B4413F9D43C303B1344B6
:1014C000642202FB03F2D7F82C319B0007F59C71D4
:1014D0000B4443F8FC2CD7F82C310133C7F82C31DE
:1014E0009DE0D7F820310C3307F59C72134413F9B3
:1014F000D43CA3F1300213469B0013445B001A4610
:10150000D7F820310D3307F59C710B4413F9D43C07
:10151000303B1A44D7F82C319B0007F59C710B44E3
:1015200043F8FC2CD7F82C310133C7F82C3176E086
:10153000D7F83431032B32D1D7F82431013307F5F2
:101540009C72134413F9D43C542B68D1D7F8203142
:101550000C3307F59C72134413F9D43C303B6422DE
:1015600002FB03F1D7F820310E3307F59C721344C8
:1015700013F9D43CA3F1300213469B0013445B00E3
:10158000CA18D7F82C319B0007F59C710B4443F81F
:10159000FC2CD7F82C310133C7F82C313FE0D7F8B9
:1015A0003431042B3BD1D7F82431013307F59C7239
:1015B000134413F9D43C542B31D1D7F820310C33D8
:1015C00007F59C72134413F9D43C303B642202FBB0
:1015D00003F1D7F820310E3307F59C72134413F949
:1015E000D43CA3F1300213469B0013445B00CA189D
:1015F000D7F820310F3307F59C710B4413F9D43C15
:10160000303B1A44D7F82C319B0007F59C710B44F2
:1016100043F8FC2CD7F82C310133C7F82C310023C8
:10162000C7F83431D7F820310133C7F8203107F13A
:101630006403184601F084FF03465A1ED7F8203190
:101640009A423EF62FAE0023C7F81C3112E0D7F8BD
:101650001C319B0007F59C72134453F8E81C07F1FA
:101660001403D7F81C2143F82210D7F81C3101339A
:10167000C7F81C31D7F81C31042BE8DD0023C7F86C
:101680001C3110E007F12803D7F81C2153F8221071
:1016900007F10803D7F81C2143F82210D7F81C31B2
:1016A0000133C7F81C31D7F81C31022BEADD00F0FA
:1016B0001FFE00F03FFE00F05FFE00F0EBFE012099
:1016C00000F03CFF802000F039FF4FF4FA7000F08A
:1016D00073FF012000F070FF0121012000F0A4FE43
:1016E000C94800F089FE0121022000F09DFEC74894
:1016F00000F082FE4FF4FA7000F05EFF0023C7F89E
:1017000018310023C7F81431C14B1B6803F00103E3
:10171000C7F81031BE4B1B6803F00203C7F80C3149
:10172000BB4B1B6803F00403C7F80831B84B1B68B8
:1017300003F00803C7F80431D7F81031002B10D09C
:10174000D7F818311933C7F81831D7F8180100F055
:1017500071FF07F128031B685A1C07F128031A6060
:10176000D2E7D7F80C31002B10D0D7F8183132332C
:10177000C7F81831D7F8180100F05CFF07F128030B
:101780005B685A1C07F128035A60BDE7D7F8083197
:10179000002B10D0D7F818316433C7F81831D7F8B8
:1017A000180100F047FF07F128039B685A1C07F156
:1017B00028039A60A8E7D7F80431002B00D1A3E7EB
:1017C00000BF0021022000F02FFE924800F014FE1E
:1017D0004FF47A7000F0F0FE00F0F2FDD7F8183107
:1017E000C7F814318A4B1B6803F00103C7F81031A6
:1017F000874B1B6803F00203C7F80C31844B1B684E
:1018000003F00403C7F80831814B1B6803F0080399
:10181000C7F804317E4B1B6803F01003C7F8003192
:101820007B4B1B6803F02003C7F8FC307A4B1B6826
:1018300003F01003C7F8F830D7F81031002B2FD081
:10184000D7F81831312B1DDD3B6D002B0CD0D7F8AC
:101850001831323BC7F81831D7F8180100F0EAFE0A
:101860003B6D013B3B65BDE70021022000F0DCFD44
:101870006A4800F0C1FD4FF47A7000F09DFE00F060
:101880009FFDAFE70021022000F0CEFD644800F08C
:10189000B3FD4FF47A7000F08FFE00F091FDA1E7E8
:1018A000D7F80C31002B2FD0D7F81831632B1DDD62
:1018B0007B6D002B0CD0D7F81831643BC7F818317A
:1018C000D7F8180100F0B6FE7B6D013B7B6589E718
:1018D0000021022000F0A8FD504800F08DFD4FF4DB
:1018E0007A7000F069FE00F06BFD7BE700210220BA
:1018F00000F09AFD4A4800F07FFD4FF47A7000F046
:101900005BFE00F05DFD6DE7D7F80831002B2FD0AE
:10191000D7F81831952B1DDDBB6D002B0CD0D7F8F7
:101920001831963BC7F81831D7F8180100F082FE3D
:10193000BB6D013BBB6555E70021022000F074FD43
:10194000364800F059FD4FF47A7000F035FE00F093
:1019500037FD47E70021022000F066FD304800F027
:101960004BFD4FF47A7000F027FE00F029FD39E7B7
:10197000D7F80431002B2FD0D7F81831AE2B1DDD4E
:10198000FB6D002B0CD0D7F81831AF3BC7F81831DE
:10199000D7F8180100F04EFEFB6D013BFB6521E717
:1019A0000021022000F040FD1C4800F025FD4FF40E
:1019B0007A7000F001FE00F003FD13E70021022021
:1019C00000F032FD164800F017FD4FF47A7000F079
:1019D000F3FD00F0F5FC05E7D7F80031002B3DD012
:1019E000D7F81831C72B2BDD3B6E002B1AD0D7F858
:1019F0001831C83BC7F81831D7F8180100F01AFEA3
:101A00003B6E013B3B66EDE61C3600002C360000C9
:101A1000FC43024034360000FC53024044360000D0
:101A2000543600000021022000F0FEFCA14800F026
:101A3000E3FC4FF47A7000F0BFFD00F0C1FCD1E68A
:101A40000021022000F0F0FC9B4800F0D5FC4FF490
:101A50007A7000F0B1FD00F0B3FCC3E6D7F8FC30BB
:101A6000002B21D1D7F8F830002B3FF4BBAED7F8CC
:101A70001431C7F81831D7F8180100F0DBFD07F171
:101A800014031B683B6507F114035B687B6507F172
:101A900014039B68BB6507F11403DB68FB6507F162
:101AA00014031B693B669DE600BF00F089FC01F052
:101AB00027FD0246814B1340002B03DA013B63F004
:101AC000030301330133C7F8F430D7F8F40000F012
:101AD00089FE0421022000F0A7FC794800F08CFC6C
:101AE0004FF47A7000F068FD00F06AFCD7F8F4302B
:101AF000022B40F09F80734A724B1B6843F008032F
:101B00001360704A6F4B1B6823F0040313604FF49B
:101B10007A7000F051FD0021022000F085FC6A4837
:101B200000F06AFC00F04CFC4FF47A7000F044FDC9
:101B300007F128031A6807F108031B68D31AC7F8CE
:101B4000F03007F128035A6807F108035B68D31ADD
:101B5000C7F8EC3007F128039A6807F108039B687F
:101B6000D31AC7F8E83007F108031A6807F1280309
:101B70001A6007F108035A6807F128035A6007F151
:101B800008039A6807F128039A6007F114031B6899
:101B90003B6507F114035B687B6507F114039B68E1
:101BA000BB6507F11403DB68FB6507F114031B69D0
:101BB0003B660021022000F037FC444800F01CFC8A
:101BC0004FF47A7000F0F8FC00F0FAFBD7F8E80068
:101BD00000F008FE0521022000F026FC3C4800F041
:101BE0000BFC4FF47A7000F0E7FC00F0E9FBD7F84B
:101BF000EC0000F0F7FD0321022000F015FC354851
:101C000000F0FAFB4FF47A7000F0D6FC00F0D8FB3D
:101C1000D7F8F00000F0E6FD0321022000F004FCFC
:101C20002D4800F0E9FB4FF47A7000F0C5FC00F09D
:101C3000C7FBFAE1234A234B1B6843F004031360FC
:101C4000204A204B1B6823F0080313600021022068
:101C500000F0EAFB214800F0CFFB4FF47A7000F06F
:101C6000ABFC00F0ADFB07F128031A6813469B009C
:101C700013449A001A4407F128035B68322101FBE0
:101C800003F31A4407F128039B68642101FB03F363
:101C90001A44D7F818319A4224DA0121022000F0C0
:101CA000C3FB0F4800F0A8FB4FF47A7000F084FCEF
:101CB000BBE100BF44360000543600000300008042
:101CC00064360000FC73004070360000803600006F
:101CD0008C36000098360000A8360000B8360000A8
:101CE000C836000007F128039B68002B40F385806D
:101CF000D7F81831DF4A82FB03125211DB17D31ACF
:101D0000C7F8E430D7F8E430002B76D0D7F8E430C9
:101D1000C7F8E03007F128039A68D7F8E0309A4214
:101D20002FDA0021022000F07FFBD34800F064FB93
:101D30004FF47A7000F040FC00F042FB07F12803FA
:101D40009B68184600F04EFD0421022000F06CFB59
:101D5000CA4800F051FB4FF47A7000F02DFC00F0FF
:101D60002FFB07F128039B686FF0630202FB03F36C
:101D7000D7F818211344C7F8183107F128030022B7
:101D80009A6007F128039A68D7F8E0309A4234DB6A
:101D90000021022000F048FBB74800F02DFB4FF473
:101DA0007A7000F009FC00F00BFBD7F8E00000F0BF
:101DB00019FD0421022000F037FBB04800F01CFBA5
:101DC0004FF47A7000F0F8FB00F0FAFAD7F8183107
:101DD000A84A82FB03125111DA178A1A642101FB07
:101DE00002F29B1AC7F8183107F128039A68D7F84E
:101DF000E030D21A07F128039A6007F128035B68E4
:101E0000002B40F38580D7F818319A4A82FB0312E1
:101E10001211DB17D31AC7F8DC30D7F8DC30002BEF
:101E200076D0D7F8DC30C7F8D83007F128035A68E5
:101E3000D7F8D8309A422FDA0021022000F0F4FAC5
:101E40008D4800F0D9FA4FF47A7000F0B5FB00F03D
:101E5000B7FA07F128035B68184600F0C3FC0421B9
:101E6000022000F0E1FA864800F0C6FA4FF47A70DA
:101E700000F0A2FB00F0A4FA07F128035B686FF002
:101E8000310202FB03F3D7F818211344C7F81831C5
:101E900007F1280300225A6007F128035A68D7F88F
:101EA000D8309A4234DB0021022000F0BDFA72489B
:101EB00000F0A2FA4FF47A7000F07EFB00F080FA96
:101EC000D7F8D80000F08EFC0421022000F0ACFA14
:101ED0006B4800F091FA4FF47A7000F06DFB00F05F
:101EE0006FFAD7F81831634A82FB03121111DA171F
:101EF0008A1A322101FB02F29B1AC7F8183107F146
:101F000028035A68D7F8D830D21A07F128035A6044
:101F100007F128031B68002B40F38780D7F818319E
:101F2000544A82FB0312D210DB17D31AC7F8D430FD
:101F3000D7F8D430002B78D0D7F8D430C7F8D030C9
:101F400007F128031A68D7F8D0309A422FDA002117
:101F5000022000F069FA484800F04EFA4FF47A7017
:101F600000F02AFB00F02CFA07F128031B68184642
:101F700000F038FC0421022000F056FA414800F03D
:101F80003BFA4FF47A7000F017FB00F019FA07F1F2
:101F900028039B686FF0180202FB03F3D7F818219F
:101FA0001344C7F8183107F1280300221A6007F11B
:101FB00028031A68D7F8D0309A4236DB0021022075
:101FC00000F032FA2C4800F017FA4FF47A7000F063
:101FD000F3FA00F0F5F9D7F8D00000F003FC042183
:101FE000022000F021FA274800F006FA4FF47A7038
:101FF00000F0E2FA00F0E4F9D7F818211D4B83FB5A
:102000000213D910D317C91A0B469B000B44990031
:102010000B44D31AC7F8183107F128031A68D7F808
:10202000D030D21A07F128031A60174A164B1B68E2
:1020300023F004031360144A134B1B6823F00803B6
:1020400013600021022000F0EFF9104800F0D4F9ED
:102050004FF47A7000F0B0FA00F0B2F907F12803FB
:102060001B68184600F0BEFB0421022000F0DCF9DA
:102070000EE000BF1F85EB51DC3600008C360000FF
:1020800098360000A8360000FC730040E8360000D7
:102090008B4800F0B1F94FF47A7000F08DFA00F03F
:1020A0008FF90021022000F0BFF9864800F0A4F962
:1020B0004FF47A7000F080FA00F082F907F12803FB
:1020C0005B68184600F08EFB0421022000F0ACF99A
:1020D0007D4800F091F94FF47A7000F06DFA00F04D
:1020E0006FF90021022000F09FF9764800F084F992
:1020F0004FF47A7000F060FA00F062F907F12803FB
:102100001B68184600F06EFB0421022000F08CF9D9
:102110006E4800F071F94FF47A7000F04DFA00F05B
:102120004FF90021022000F07FF9694800F064F9BE
:102130004FF47A7000F040FA00F042F93B6D184617
:1021400000F050FB0421022000F06EF9614800F01D
:1021500053F94FF47A7000F02FFA00F031F90021B2
:10216000022000F061F95A4800F046F94FF47A7005
:1021700000F022FA00F024F97B6D184600F032FBE3
:102180000421022000F050F9534800F035F94FF4D3
:102190007A7000F011FA00F013F90021022000F02B
:1021A00043F94B4800F028F94FF47A7000F004FA34
:1021B00000F006F9BB6D184600F014FB0421022064
:1021C00000F032F9454800F017F94FF47A7000F04A
:1021D000F3F900F0F5F80021022000F025F93C4861
:1021E00000F00AF94FF47A7000F0E6F900F0E8F830
:1021F000FB6D184600F0F6FA0421022000F014F9F5
:10220000374800F0F9F84FF47A7000F0D5F900F093
:10221000D7F80021022000F007F92D4800F0ECF873
:102220004FF47A7000F0C8F900F0CAF83B6E184617
:1022300000F0D8FA0421022000F0F6F8294800F056
:10224000DBF84FF47A7000F0B7F900F0B9F800F05D
:10225000F1FB254800F0BEFE07F128031B68184675
:1022600000F060FB0346184600F0B4FE07F12803B7
:102270005B68184600F0AEFE07F128039B6818461D
:1022800000F0A8FE194800F0A5FE3B6D184600F0CE
:10229000A1FE7B6D184600F09DFEBB6D184600F058
:1022A00099FEFB6D184600F095FE3B6E184600F057
:1022B00091FE0023184607F59C77BD4680BD00BF00
:1022C000A8360000E8360000983600008C36000082
:1022D000F0360000F8360000003700000C37000030
:1022E000183700002837000038370000503700004A
:1022F00080B483B000AF0C4A0B4B1B6843F0100353
:102300001360094B1B687B60084A084B1B6813600D
:10231000074A074B1B6843F03F03136000BF0C37AD
:10232000BD465DF8047B704708E10F400044024061
:102330001C45024080B483B000AF0C4A0B4B1B68B5
:1023400043F020031360094B1B687B60084A084B6D
:102350001B681360074A074B1B6843F0FF031360B9
:1023600000BF0C37BD465DF8047B704708E10F40A5
:10237000005402401C55024080B483B000AF0D4AA7
:102380000C4B1B6843F0080313600A4B1B687B600F
:10239000094A094B1B6843F00F031360074A074BB8
:1023A0001B6843F00F03136000BF0C37BD465DF898
:1023B000047B704708E10F40007400401C7500402A
:1023C00080B500AF0121022000F02EF8024800F095
:1023D00013F800BF80BD00BFD437000080B500AF48
:1023E0000121012000F020F8024800F005F800BFAC
:1023F00080BD00BFD437000080B582B000AF7860E8
:1024000008E07B685A1C7A6093F90030DBB218460A
:1024100000F0B6F87B6893F90030002BF1D100BFD3
:102420000837BD4680BD00BF80B582B000AF03460F
:102430000A46FB711346BB7197F90730012B11D186
:1024400097F906305A1E124B1340002B03DA013B5A
:1024500063F00F030133DBB2803BDBB2184600F0C0
:102460006DF810E097F906305A1E094B1340002B07
:1024700003DA013B63F00F030133DBB2403BDBB215
:10248000184600F05BF800BF0837BD4680BD00BFAE
:102490000F00008080B500AF0F4A0F4B1B6843F060
:1024A000020313600D4A0D4B1B6843F0FF031360DA
:1024B0000B4A0B4B1B6843F0FF031360282000F00E
:1024C0003DF8062000F03AF8012000F037F80F2020
:1024D00000F034F800BF80BD08E10F400054004018
:1024E0001C55004080B582B000AF03460A46FB7120
:1024F0001346BB71FB7923F00F03FB71BB7903F02B
:102500000F03BB710C49FA79BB791343DBB20B6043
:102510000949FA79BB791343DBB243F00403DBB218
:102520000B60002000F068F8034AFB79136000BFDD
:102530000837BD4680BD00BFFC53004080B582B067
:1025400000AF0346FB71FB7923F00F03DBB20021E0
:102550001846FFF7C7FFFB791B01DBB200211846C5
:10256000FFF7C0FFFB79032B03D8022000F024F80B
:1025700002E0282000F040F800BF0837BD4680BDCB
:1025800080B582B000AF0346FB71FB7923F00F03E7
:10259000DBB201211846FFF7A5FFFB791B01DBB277
:1025A00001211846FFF79EFF282000F025F800BF04
:1025B0000837BD4680BD00BF80B485B000AF7860ED
:1025C0000023FB600DE00023BB6002E0BB68013329
:1025D000BB60BB6840F604529342F7DDFB680133F1
:1025E000FB60FA687B689A42EDDB00BF1437BD469A
:1025F0005DF8047B704700BF80B485B000AF7860A1
:102600000023FB600BE00023BB6002E0BB680133EA
:10261000BB60BB68022BF9DDFB680133FB60FA6825
:102620007B689A42EFDB00BF1437BD465DF8047B40
:10263000704700BF80B588B000AF78607B68664A9D
:1026400082FB03125211DB17D31ABB617B68624A0B
:1026500082FB03125111DA178A1A642101FB02F27C
:102660009B1A7B610023FB6108E007F10802FB690C
:10267000134400221A70FB690133FB61FB69092BCB
:10268000F3DDBB69092B3BDCBB69DBB23033DBB26A
:102690005BB23B722E237B727B69092B0CDC7B695E
:1026A000DBB23033DBB25BB2BB722023FB7254234C
:1026B0003B734C237B7375E07B69484A82FB0312B2
:1026C0009210DB17D31ADBB23033DBB25BB2BB72D2
:1026D0007A69424B83FB02139910D317C91A0B4630
:1026E0009B000B445B00D11ACBB23033DBB25BB240
:1026F000FB7220233B7354237B734C23BB7351E049
:10270000BB69364A82FB03129210DB17D31ADBB285
:102710003033DBB25BB23B72BA69304B83FB0213DE
:102720009910D317C91A0B469B000B445B00D11AB2
:10273000CBB23033DBB25BB27B722E23BB727B69D0
:10274000092B0CDC7B69DBB23033DBB25BB2FB7292
:1027500020233B7354237B734C23BB7322E07B69A0
:102760001E4A82FB03129210DB17D31ADBB23033FE
:10277000DBB25BB2FB727A69184B83FB02139910D0
:10278000D317C91A0B469B000B445B00D11ACBB27E
:102790003033DBB25BB23B7320237B735423BB73B8
:1027A0004C23FB7301210120FFF73EFE0C48FFF78D
:1027B00023FE01210220FFF737FE07F10803184628
:1027C000FFF71AFE4FF4FA70FFF7F6FEFFF706FE6A
:1027D00000BF2037BD4680BD1F85EB51676666662A
:1027E000E837000080B588B000AF78600023FB6157
:1027F00008E007F10802FB69134400221A70FB6924
:102800000133FB61FB69092BF3DD7B68434A82FBE3
:1028100003129210DB17D31ABB617A683F4B83FB1C
:1028200002139910D317C91A0B469B000B445B0087
:10283000D31A7B61BB69002B0FD17B69DBB23033CC
:10284000DBB25BB23B7201210220FFF7EDFD07F125
:1028500008031846FFF7D0FD5BE0BB69002B18D0DA
:10286000BB69092B15DCBB69DBB23033DBB25BB271
:102870003B727B69DBB23033DBB25BB27B7200212F
:102880000220FFF7D1FD07F108031846FFF7B4FD5A
:102890003FE07B68224A82FB03125211DB17D31AF6
:1028A000DBB23033DBB25BB23B727B681C4A82FB2B
:1028B00003125111DA178A1A642101FB02F29B1AE2
:1028C0007B607B68154A82FB03129210DB17D31AD8
:1028D000DBB23033DBB25BB27B727A680F4B83FBC7
:1028E00002139910D317C91A0B469B000B445B00C7
:1028F000D31A7B607B68DBB23033DBB25BB2BB7276
:1029000000210220FFF790FD07F108031846FFF7AA
:1029100073FD00BF2037BD4680BD00BF6766666699
:102920001F85EB5180B489B000AF78600023FB6154
:1029300008E007F10802FB69134400221A70FB69E2
:102940000133FB61FB69092BF3DD7B68374A82FBAE
:1029500003129210DB17D31ABB617A68334B83FBE7
:1029600002139910D317C91A0B469B000B445B0046
:10297000D31A7B61BB69002B06D17B69DBB2303394
:10298000DBB25BB23B7249E0BB69002B0FD0BB6985
:10299000092B0CDCBB69DBB23033DBB25BB23B72C0
:1029A0007B69DBB23033DBB25BB27B7236E07B68D3
:1029B0001F4A82FB03125211DB17D31ADBB23033EA
:1029C000DBB25BB23B727B68194A82FB0312511186
:1029D000DA178A1A642101FB02F29B1A7B607B687A
:1029E000124A82FB03129210DB17D31ADBB2303388
:1029F000DBB25BB27B727A680C4B83FB02139910DB
:102A0000D317C91A0B469B000B445B00D31A7B609B
:102A10007B68DBB23033DBB25BB2BB72002318469B
:102A20002437BD465DF8047B704700BF6766666665
:102A30001F85EB5180B500AF114800F0D4FB012099
:102A400000F098FB40F2014000F094FB03214FF0AE
:102A5000402000F080FB00F0D7FB014660234FF4DC
:102A600016724FF0402000F07EFC00F0CDFB0346D4
:102A70001A464FF41671002000F046F800BF80BDE2
:102A8000000800F080B582B000AF134B7B60134BA1
:102A90003B6007E03B681A1D3A607A68111D796057
:102AA00012681A603B680E4A9342F3D30E480F49EE
:102AB0004FF000028842B8BF40F8042BFADB094A05
:102AC000084B1B6843F470031360FDF7CFFB00BF96
:102AD0000837BD4680BD00BF50390000000000200F
:102AE0003004002088ED00E0300400203405002090
:102AF00080B400AFFEE700BF80B400AFFEE700BFC8
:102B000080B400AFFEE700BF80B584B000AFF860CE
:102B1000B9607A60154AFB6852F82330184600F015
:102B20004FFB034683F00103DBB2002B19D1104A9F
:102B3000FB6852F823300F4A13600C4AFB6852F8C6
:102B40002330184600F04FFB0A4B18686023BA6820
:102B5000796800F008FC074B1B68184600F0EAFB98
:102B600000E000BF1037BD4680BD00BF2C3800001C
:102B7000203800003005002080B584B000AF7860B8
:102B800039600023FB601AE07A68FB68134493F90C
:102B900000300A2B05D10E4B1B680D21184600F0A2
:102BA00006FC0B4B18687A68FB68134493F90030F5
:102BB000DBB2194600F0FBFBFB680133FB60FA68EF
:102BC0003B689A42E0D3FB6818461037BD4680BD8B
:102BD0003005002090B58FB000AF78603960E8E133
:102BE00000237B6302E07B6B01337B637A687B6B42
:102BF000134493F90030252B06D07A687B6B13447D
:102C000093F90030002BEED1796B7868FFF7B4FFB1
:102C10007A687B6B13447B607B6893F90030252BCB
:102C200040F0C7817B6801337B600023FB62202377
:102C300087F823307B685A1C7A6093F90030253B73
:102C4000532B00F2B18101A252F823F09B2F000018
:102C5000A92F0000A92F0000A92F0000A92F000014
:102C6000A92F0000A92F0000A92F0000A92F000004
:102C7000A92F0000A92F00009D2D00009D2D000010
:102C80009D2D00009D2D00009D2D00009D2D00001C
:102C90009D2D00009D2D00009D2D00009D2D00000C
:102CA000A92F0000A92F0000A92F0000A92F0000C4
:102CB000A92F0000A92F0000A92F0000A92F0000B4
:102CC000A92F0000A92F0000A92F0000A92F0000A4
:102CD000A92F0000A92F0000A92F0000A92F000094
:102CE000A92F0000A92F0000A92F0000A92F000084
:102CF000A92F0000A92F0000A92F0000A92F000074
:102D0000A92F0000A92F0000A92F0000A92F000063
:102D1000A92F0000A92F0000832E0000A92F00007A
:102D2000A92F0000A92F0000A92F0000A92F000043
:102D3000A92F0000A92F0000A92F0000A92F000033
:102D4000A92F0000D52D0000ED2D0000A92F0000B7
:102D5000A92F0000A92F0000A92F0000ED2D0000D1
:102D6000A92F0000A92F0000A92F0000A92F000003
:102D7000A92F0000A92F0000832E0000A92F00001A
:102D8000A92F0000172E0000A92F00006B2E0000B5
:102D9000A92F0000A92F0000832E00007B68013BB3
:102DA00093F90030302B05D1FB6A002B02D1302380
:102DB00087F82330FA6A13469B0013445B00FB62DA
:102DC0007B68013B93F900301A46FB6A1344303BA1
:102DD000FB622FE73B681A1D3A601B68BB6107F175
:102DE000180301211846FFF7C7FEE2E03B681A1DF1
:102DF0003A601B68BB6100233B63BB69002B05DAAB
:102E0000BB695B42BB6101237B6201E000237B6203
:102E10000A23BB6240E03B681A1D3A601B68FB61F5
:102E200000237B6302E07B6B01337B63FA697B6B7E
:102E3000134493F90030002BF5D1796BF869FFF753
:102E40009BFEFA6A7B6B9A4240F2B380FA6A7B6B14
:102E5000D31AFB6203E001215B48FFF78DFEFB6A9A
:102E60005A1EFA62002BF6D1A3E03B681A1D3A60A5
:102E70001B68BB6100233B630A23BB6200237B62A8
:102E80000AE03B681A1D3A601B68BB6100233B6384
:102E90001023BB6200237B6201237B6307E07B6B13
:102EA000BA6A02FB03F37B63FB6A013BFB627B6B49
:102EB000BA6A02FB03F2BB699A4209D87B6BBA6A11
:102EC00002FB03F2BB6AB2FBF3F27B6B9A42E6D0E1
:102ED0007B6A002B02D0FB6A013BFB627B6A002B02
:102EE0000ED097F92330302B0AD13B6B5A1C3A6332
:102EF00007F1380213442D2203F8302C00237B62A3
:102F0000FB6A012B16D9FB6A0F2B13D8FB6A013B16
:102F1000FB620CE03B6B5A1C3A6307F13802134426
:102F200097F8232003F8302CFB6A013BFB62FB6A15
:102F3000002BEFD17B6A002B25D03B6B5A1C3A63E8
:102F400007F1380213442D2203F8302C1BE03B6BB1
:102F50005A1C3A631D4CB9697A6BB1FBF2F2B96A3B
:102F6000B2FBF1F1B86A00FB01F1521A224492F966
:102F7000002007F138010B4403F8302C7A6BBB6A50
:102F8000B2FBF3F37B637B6B002BE0D107F108030B
:102F9000396B1846FFF7F0FD0BE07B68013B012120
:102FA0001846FFF7E9FD04E005210948FFF7E4FDB5
:102FB00000BF7B6893F90030002B7FF411AE00BF97
:102FC0003C37BD4690BD00BF14380000F837000004
:102FD000183800000FB480B582B000AF07F11403B9
:102FE0007B6079683869FFF7F5FD00BF0837BD469B
:102FF000BDE8804004B07047D0F8003412F0010FF3
:1030000010B500F5806414BF0B438B43236012F0AE
:10301000020FD0F8202400F5846314BF114322EA84
:103020000101196010BDF0B5C2F34116002441FA48
:1030300004F5ED0711D5D0F8C47F65004FF0030CFF
:103040000CFA05FC27EA0C07C0F8C47FD0F8C47F4F
:1030500006FA05F53D43C0F8C45F0134082CE6D1FB
:10306000D0F8004512F0010F00F5A06514BF0C4325
:103070008C432C60D0F8044512F0020F00F2045586
:1030800014BF0C438C432C60D0F8084512F0040F99
:1030900000F5A16514BF0C438C432C60D0F8184593
:1030A00012F0080F00F5A36514BF0C438C432C608D
:1030B00012F0100FD0F83C2500F23C5414BF0A4324
:1030C0008A432260D0F80C2513F0010F00F20C5453
:1030D00014BF0A438A432260D0F8102513F0020F70
:1030E00000F5A26414BF0A438A432260D0F8142575
:1030F00013F0040F00F2145414BF0A438A432260F1
:10310000D0F81C2513F0080F00F21C5414BF0A431A
:103110008A432260D0F8442513F4007F00F244541F
:1031200014BF0A438A432260D0F8402513F4407F3D
:1031300000F5A86414BF0A438A43226000F5A56223
:103140001BB9D0F82805014303E0D0F8283523EA5D
:1031500001011160F0BD70B5022205460C46FFF773
:103160004BFF2846214601220823BDE87040FFF7A7
:103170005ABF0000104BC0F3074210B501211C6874
:103180000E4B01FA02F121424FEA420218BF01320E
:103190000F2153F82230C0F30722D3F82C4501FA4F
:1031A00002F100F00F0024EA010100FA02F21143DB
:1031B000C3F82C1510BD00BF6CE00F40383800007C
:1031C000C3B2C0F30720990000F57E2341F084428A
:1031D00003F5407121F4700042EA40121368181C94
:1031E00018BF01207047C3B2C0F30720990000F553
:1031F0007E2341F0844203F5C06121F4700042EA6D
:1032000040120123136070473F4B19681A69002A66
:10321000B4BF02F0700301F03003202B70B515D05D
:1032200004D853B1102B6DD1384B10E0302B0AD09D
:10323000702B67D14FF4004309E0C1F38410344B85
:1032400053F8203003E047F2305300E0314B002ABE
:1032500002DA12F4006F01E011F4006F32D12E4D4A
:103260002C686D6805F01F06701C4600C5F304202D
:1032700001307043B3FBF0F0A305C4F38924444349
:103280009B0DA40A03FB00432448006800F470402F
:10329000B0F5804F41F4800110D007D8B0F5005F41
:1032A00013D0B0F5405F0DD11D480FE0B0F5E04FF1
:1032B00006D0B0F5104F05D11A4807E01A4805E0CE
:1032C0001A4803E04FF0FF3000E0194811F4800F76
:1032D00014D0002A0DDA510005D5110503D45B0086
:1032E000C2F3865201E0C2F3C552511CB3FBF1F3A5
:1032F00004E0C1F3C352511CB3FBF1F3834238BF66
:10330000184670BD002070BD60E00F400024F4003E
:10331000C838000000093D0060E10F4010E00F4098
:1033200080F0FA02002D3101005A620240787D01DE
:1033300000B4C404C36A43F01001C162026B42F4DA
:10334000407343F001010163704783691B07FCD49C
:10335000C16A21F01002C262036B23F4407121F0B4
:10336000010202637047F8B504460E4615461F4633
:10337000FFF7EBFFB6EB051F236B04D243F02001F0
:1033800021636D0802E023F020002063F600B6FB05
:10339000F5F2551CEB090020C5F345056362A562F3
:1033A000E762A0612046BDE8F840FFF7C3BF83692C
:1033B0009A06FCD401607047844641EA000313F08A
:1033C00003036DD1403A41D351F8043B40F8043B2C
:1033D00051F8043B40F8043B51F8043B40F8043BEF
:1033E00051F8043B40F8043B51F8043B40F8043BDF
:1033F00051F8043B40F8043B51F8043B40F8043BCF
:1034000051F8043B40F8043B51F8043B40F8043BBE
:1034100051F8043B40F8043B51F8043B40F8043BAE
:1034200051F8043B40F8043B51F8043B40F8043B9E
:1034300051F8043B40F8043B51F8043B40F8043B8E
:1034400051F8043B40F8043B403ABDD2303211D32E
:1034500051F8043B40F8043B51F8043B40F8043B6E
:1034600051F8043B40F8043B51F8043B40F8043B5E
:10347000103AEDD20C3205D351F8043B40F8043B2E
:10348000043AF9D2043208D0D2071CBF11F8013B2C
:1034900000F8013B01D30B8803806046704700BFF2
:1034A000082A13D38B078DD010F003038AD0C3F101
:1034B0000403D21ADB071CBF11F8013B00F8013BE3
:1034C00080D331F8023B20F8023B7BE7043AD9D3A2
:1034D000013A11F8013B00F8013BF9D20B78037077
:1034E0004B7843708B78837060467047034B1B6842
:1034F0000022C3F8A800C3F8AC20704700000020E9
:1035000010B40C4B0C4C19680C4AD1F8A830D1F807
:10351000AC0004FB03F402FB0040A3FB02230344C2
:10352000013243F10003C1E92A2323F000405DF892
:10353000044B7047000000202DF451582D7F954C0E
:1035400090F800F06DE9024520F007016FF0000CE3
:1035500010F0070491F820F040F049804FF000048B
:103560006FF00700D1E9002391F840F000F1080066
:1035700082FA4CF2A4FA8CF283FA4CF3A2FA8CF39E
:103580004BBBD1E9022382FA4CF200F10800A4FA05
:103590008CF283FA4CF3A2FA8CF3E3B9D1E9042359
:1035A00082FA4CF200F10800A4FA8CF283FA4CF390
:1035B000A2FA8CF37BB9D1E9062301F1200182FA4A
:1035C0004CF200F10800A4FA8CF283FA4CF3A2FA50
:1035D0008CF3002BC6D0002A04BF04301A4612BA5E
:1035E000B2FA82F2FDE8024500EBD2007047D1E961
:1035F000002304F00305C4F100004FEAC50514F0F0
:10360000040F91F840F00CFA05F562EA05021CBFC0
:1036100063EA050362464FF00004A9E75061726156
:103620002059756B6C656D6573690000596170692F
:103630006E697A005572756E20736563696E697A7A
:10364000000000005572756E206B616C6D616469DD
:103650000000000062616B697965207965746572AC
:1036600073697A0072616E646F6D207361796900AD
:1036700020706172612074616B696C646900000084
:1036800070617261206961646573690074616E655F
:10369000203120544C00000074616E6520353020CC
:1036A0006B7572757300000074616E652032352091
:1036B0006B7572757300000069736C656D206261D3
:1036C000736172696C690000506172615573747541
:1036D00020796574657273697A00000050617261C7
:1036E00020557374750000006B6173610000000069
:1036F00073746F6B6C61720074616E65207375001A
:1037000074616E65206361790000000074616E650C
:10371000206B61687665000074616E652063696B7B
:103720006F6C61746100000074616E652062697382
:103730006B757669000000006B6173616461206BDA
:10374000616C616E20706172616C617200000000DA
:1037500073746F6B7461206B616C616E2075727530
:103760006E6C61720000000032302C32302C32302E
:103770002C20312C73752C33302C3530204B757246
:1037800075732C20322C6361792C32302C3120540B
:103790004C2C20332C6B616876652C31352C312E06
:1037A0003520544C2C20342C63696B6F6C61746130
:1037B0002C35302C312E373520544C2C20352C62B2
:1037C00069736B7576692C3130302C3220544C2063
:1037D0000000000020202020202020202020202069
:1037E0002020202000000000546F706C616D205478
:1037F0007574617200000000303132333435363771
:1038000038396162636465660000000008200800C2
:103810000D0A0000200000004552524F52000000E7
:1038200000C0004000D0004000E00040001800F060
:10383000011800F0021800F0004000400080054030
:1038400000500040009005400060004000A005408E
:103850000070004000B005400040024000C005403C
:103860000050024000D005400060024000E00540EA
:103870000070024000F0054000D003400000064008
:1038800000100640001006400020064000200640C0
:103890000030064000300640004006400040064030
:1038A00000500640005006400060064000600640A0
:1038B0000070064000700640008006400080064010
:1038C000009006400090064040420F0000201C007F
:1038D00080841E0000802500999E3600004038003C
:1038E00000093D0000803E0000004B00404B4C00B2
:1038F00000204E00808D5B0000C05D0000807000E5
:1039000000127A0000007D0080969800001BB7002E
:103910000080BB00C0E8CE00647ADA000024F40026
:103920000000FA0080A81201002D310100366E015E
:1039300040787D0143000000F8B500BFF8BC08BC2A
:103940009E467047F8B500BFF8BC08BC9E4670475D
:10395000080000200000000000000000F402002029
:103960005C030020C40300200000000000000000F1
:103970000000000000000000000000000000000047
:1039800000000000000000000000000034390000CA
:103990000000000000000000000000000000000027
:1039A0000000000000000000000000000000000017
:1039B0000000000000000000000000000000000007
:1039C00000000000000000000000000000000000F7
:1039D00000000000000000000000000000000000E7
:1039E00000000000000000000000000000000000D7
:1039F00000000000000000000000000000000000C7
:103A000001000000000000000E33CDAB34126DE663
:103A1000ECDE05000B0000000000000000000000CC
:103A20000000000000000000000000000000000096
:103A30000000000000000000000000000000000086
:103A40000000000000000000000000000000000076
:103A50000000000000000000000000000000000066
:00000001FF
